:020000040000FA
:0300000002007388
:10001300020C6700000080FB1200A3B9000302007A
:100023005DE4900200783079018002F0A3D8FCD916
:10003300FA90022FAA82AB839000A6787F79018081
:1000430015E493A3AC82AD838A828B83F0A3AA8247
:10005300AB838C828D83D8E9D9E775825775832169
:100063007400120085758216758300740012008572
:1000730075D0007581BF751000751102759F000260
:10008300001BC09FF59FE473D09F22D083D082C012
:100093009FE493C0E0740193C0E0740293F59F2240
:1000A3007901220454656D70657261747572653AE5
:1000B3000048756D69646974793A0020004475736A
:1000C300743A252E31660D0A00000000009D4DD3C1
:1000D3003A0000484330313233343536373839410A
:1000E300424344454600286E756C6C20706F696E00
:1000F30074657229003F3F3F000000807F0000804D
:100103003FF9021550B743BA510000204100E7DB25
:100113002E0000A04010000000080000000A0000AC
:100123000012008E441F0012008E5D1F0012008E0D
:100133008C1F0012008E09200012008E042300126F
:10014300008E67230012008EFD1C0012008E291DF5
:100153000012008E581D0012008E6C1D0012008EBE
:100163005E240012008E6D240012008EFC24001207
:10017300008ECD250012008E2D250012008E5725EE
:100183000012008EFA250012008EAE0C0012008EB3
:10019300CC1100C008C3E096F50808A3E096420816
:1001A30008A3E096420808A3E0964208A2D265D0CD
:1001B30033E5087001D3D00822080808E630E711B8
:1001C3001209F81201D4080808C64480C618181882
:1001D30022181818E9799EC608CAC608CBC608CCE7
:1001E300C6C370207996CACBCC7019798ECBCC70EC
:1001F300137986CC700EF9802ACA33CACB33CBCCA1
:1002030033CC331930E7F2CCCBCA3350147004EA41
:1002130030E00DE4CA3ACACB3BCBCC3CCC5002090C
:10022300C3E913C6CC182313C6CB18C6CA18C6F91C
:100233002212027420F01430E72B74FFFCFBFA74D3
:100243007F8022E4FCFBFA7480801AB48008BC002F
:10025300F2BB00EF800F50EBF9E4C39AFAE49BFB87
:10026300E49CFCE499C6CC18C6CB18C6CA18C6F9D8
:1002730022E4C9C608CAC608CBC6D3330308CCC612
:100283003392F0C3947F402E94184019C9B90704E0
:10029300CACBCC225025C309CA33CACB33CBCC3308
:1002A300CC33D9F422F4600DC9CCC313CB13CBCA1E
:1002B30013CAD9F6CC22E4FCFBFA2214FCFBFA2283
:1002C300E6C33318461846184622E7C333194719BD
:1002D30047194722181818E6084608700AE608C3A3
:1002E300337005E633F4220822191919E70947097F
:1002F300700AE709C3337005E733F4220922E608DD
:100303004608C3134608336002E633F422E709477D
:1003130009C3134709336002E733F4221203016070
:100323002512031060201202C370030202CD0808D5
:1003330008E76670101819E766700A1819E76670FF
:10034300041819E76622F422120301601C12031039
:1003530060171202C370071202CD7001D322C0D0FE
:100363001202CD7006D0D0B322C32233D0D05014A2
:1003730030E0F6C3E7960809E7960809E796080907
:10038300E796B32220E0D5E6970809E6970809E641
:10039300970809E697B322120301601B120310604A
:1003A300161202C370071202CD600CB322C0D01222
:1003B30002CD7005D0D022C32233D0D0501330E009
:1003C300EBC3E7960809E7960809E7960809E79655
:1003D3002220E0E4E6970809E6970809E69708096A
:1003E300E6972200120301604F1203106012E754D4
:1003F3008066F61202D770111202CD703B0909090B
:10040300F4F618F618F618F6221202EC701512021A
:10041300C308080860EAE6447FF618768018E4F615
:1004230018F6221202C360161202CD7012E4F60807
:10043300F608F608E65480F609090918181822EA9E
:10044300C0E0EBC0E0ECC0E0EDC0E0E687F0A4FB69
:10045300ACF008E687F0A42CFCE435F0FA1809E6C2
:1004630087F0A42C4B60027401CA35F0FCE433FB23
:1004730009E687F0D2F7A42CCB35F0FC1908E68700
:10048300F0A42BCC35F0FBE433FD0819E687F0D25A
:10049300E7A42C4ACB35F0CD3400FC09E687F0D233
:1004A300E7A42DCC35F0FDE433FA0918E687F0D242
:1004B300F7A42CCD35F0CA3400FC08E687F0D2E768
:1004C300D2F7A42ACC35F07A7E20E70B0ACB33CBC4
:1004D300CD33CDCC33CC33CB3350147004ED30E07B
:1004E3000ED2F1E4CD3DCDCC3CCC3B5005DA05C278
:1004F300F1EB547FC63308E63392F0FBE73309E7A9
:1005030033C39A502D2B70190C0D4C4D70151806D2
:10051300E608C333700D20F10AA2F013F6E4188045
:100523000B4024E4F630F002768018F618F618F63D
:100533008024D33B14501074FFA2F013F618768076
:10054300E418F618F6800FA2F013F618E63303F654
:1005530018ECF618EDF6D0E0FDD0E0FCD0E0FBD0CF
:10056300E0FA221203106046120301603DE968704D
:1005730008F618F618F618F622748067F712059A2B
:10058300090909748067F722120301601D12031021
:100593007005191919801A1202D7701F1202ECC3C1
:1005A3007003E66733191919400718181822080849
:1005B3000874FFF618F618F618F6221202EC601704
:1005C3001202CD702192F01202C37019501720F05D
:1005D30014080808090909E7F61819E7F61819E7CE
:1005E300F61819E7F6221202C360E6E869701F08DD
:1005F30008E62480F608E436F618547FB47F0CE648
:1006030054806007F6E418F618F622181822E9C693
:10061300CC08C6CD08C6CE08C6CFC0E0E8C0E0EA25
:10062300C0E0EBC0E009E9F809E7FA09E7FBE6F9FE
:1006330018E6F8C3EC98ED99EE9AEBC2E7F5F0EF04
:10064300C2E795F0500E600CEBCFFBEACEFAE9CD92
:10065300F9E8CCF8EAA2E7D2E7FAEB33FB13F5F0BB
:10066300EEA2E7D2E7FEEF33FFC5F013A2E730E6D1
:1006730001B313C5F0C3C0E0C0F07F00C39BFB60B0
:100683005B9418600C401AD0E023F9D0E0F802071D
:10069300698AF0E9486003D2F0E4AFF0FAF9F88030
:1006A3003BEB30E40D89F0EA6003D2F0E4AFF0F9FC
:1006B300CAF8EB30E30D88F0EF6002D2F0AFF0E45C
:1006C300CAC9F8EB54076014FBC3EA13FAE913F938
:1006D300E813F8EF135002D2E0FFDBEDD0E0C0E007
:1006E30030E739C3E49FFFF5F0EC98FC42F0ED9955
:1006F300FD42F0EE9AFE42F0D0E0F9D0E0F8E5F0EA
:10070300607AE923F9EE20E742D8028067C3EF332A
:10071300FFEC33FCED33FDEE33FE80EAEC28FCED19
:1007230039FDEE3AFED0E023F9D0E0F84002801B19
:10073300C3EE13FEED13FDEC13FCEF135002D2E0F6
:10074300FF08B800067F7F74FF802EEF3350178CAD
:10075300F020F00260100CBC000C0DBD00080EBEB2
:10076300000408E860DFE933E813FFEE2313FE4FCC
:100773004D4C8008E95480FFE4FEFDFCEE33EF337B
:10078300F47004FCFD7E80D0E0FBD0E0FAD0E0F80A
:10079300D0E0CFC618CEC618CDC618CCC6F92212E3
:1007A3000301700418181822120310700D74FFF659
:1007B3001819F61819F61819F622E7548066F61276
:1007C30002C3700F1202CD70F014F608F608F60893
:1007D300F680D11202CD700CF608F608768008E692
:1007E300447F80EC1202EF700C1202DA60BFE65411
:1007F30080F6E480BB1202DA700519191980A5E8A6
:1008030069700C763F18768018F618F6E8F922E638
:10081300CDC0E018ECC0E0E633CD33CDD313F6E71B
:1008230019FCE7191933CC33C3947F400ECD9D5087
:100833002408E65480F6E418F6800FF4043D1450BF
:100843001408E6447FF6187680E418F618F6D0E02C
:10085300FCD0E0FD22CCD313CCFD18E4C6CBC0E022
:1008630018E4C6CAC0E00808ED08C633E613F61854
:10087300E433C675F003C3CA97CA09CB97CB199C57
:1008830040047D08802EBD000302094B16B6FF0508
:100893000606081618C3CA33CACB33CB33CA27CAD2
:1008A30009CB37CB193CC37D08803E187D0820E770
:1008B3005CC633C6CA33CACB33CB33DDF1D5F0EBD9
:1008C30030E77BCA97CA09CB974ACB199C406F4B39
:1008D3007025E620E0218066187D08C3CA97CA09FF
:1008E300CB97CB199CD3C633C6CA33CACB33CB33CE
:1008F30050C9DDE7D5F0E1D3E4C636C608C636C62F
:1009030008C636C608C636C61818188031C3CA9733
:10091300CA09CB97CB199CB34097C633C6CA33CA0F
:10092300CB33CB33DD34D5F02EC6A2E0C640C8CAE4
:1009330027CA09CB37194A70BECB3CB480B9080823
:10094300E63308E633601F181818D0E0FAD0E0FB4E
:10095300D0E0FCD0E0FD22187D08CA27CA09CB37B6
:10096300CB193CD3808013F618E4B67F11F618B682
:10097300FF0EF618C60470D20808768080CAF618EF
:10098300F618F680C5E4CFC0E0E4CEC0E0E4CDC005
:10099300E0E4CCC0E075F020C3E633F608E633F6B6
:1009A30008E633F608E633F6181818EC33FCED3393
:1009B300FDEE33FEEF33FFC3EC9709ED9709EE9796
:1009C30009EF97191919400FFFEC97FC09ED97FDF3
:1009D30009EE97FE191906D5F0BEECF709EDF709F4
:1009E300EEF709EFF7191919D0E0FCD0E0FDD0E0DC
:1009F300FED0E0FF22181818E4C396F608E496F632
:100A030008E496F608E496F622E0F608A3E0F60872
:100A1300A3E0F608A3E0F622E6F008A3E6F008A3B5
:100A2300E6F008A3E6F022E0FAA3E0FBA3E0FCA3D0
:100A3300E0FD22EAF0A3EBF0A3ECF0A3EDF022CA71
:100A4300C0E0E6F0A308DAFAD0E0FA22CAC0E0E098
:100A5300A3C582CCC582C583CDC583F0A3C582CC93
:100A6300C582C583CDC583DAE6D0E0CA22C3E49844
:100A7300F8E499F9120AB18026C3E49AFAE49BFBDD
:100A8300E920E7E9120AB1E498F8E499F922C3E40A
:100A930098F8E499F9120AB1E498F8E499F9C3E4EF
:100AA3009AFAE49BFB22EB20E7CFE920E7E0B900C9
:100AB30010BB0008E88AF084F8AAF022E4FBC8FA25
:100AC30022EB70227B10C833C8C933C9335007C324
:100AD3009AC3DBF280069A50012ADBEAC833F4C8D2
:100AE300C933F4C9FA2275F008E4C833C8C933C955
:100AF30033C99AC99B5004C92AC93BD5F0ECFBC83A
:100B030033F4C8E4C9FA22600D08C6A2E713C61875
:100B1300C613C6D5E0F322251010AF08F510400226
:100B230015118008F51040021511D2AF22C0D0254F
:100B33001010AF08F510500205118008F51050028F
:100B43000511D2AFD0D0222510F58210AF08F510D1
:100B5300400215118008F51040021511D2AF85111E
:100B630083222510F582E43511F58322E4732510E1
:100B7300C582C0E0E51134FFC583C0E0E510C3952D
:100B83008224F810AF08858311858210800885833D
:100B930011858210D2AFCEF0A3E520F0A37808E64A
:100BA30008F0A3DEFAEFF0A3E58124FAF8E608F0F3
:100BB300A3E608F0A3E608F0A30808E608F0A3E616
:100BC30008F0A315811581D0E0FED0E0F81581155A
:100BD300811581E8C0E0EEC0E02285118385108293
:100BE300E0A3FEE0A3F5207808E0A3F608DFFAE02F
:100BF300A3FFE0A3C0E0E0A3C0E0E0A3C0E0E0A364
:100C0300C0E0E0A3C0E010AF0885821085831180A7
:100C130008858210858311D2AFD083D08202008BE6
:100C230074048006740280027401C0E0F404120BA1
:100C33004AD0E0120A422274028000CCC0E0EDC028
:100C4300E0E510C39CCCAD1150011D10AF068C1014
:100C53008D1180068C108D11D2AF120A4FD0E0FD9A
:100C6300D0E0FC22C0E0C0D0E8C0E0E9C0E0C08230
:100C7300C083C28B90022EE0C3941E501FE5C1C0F7
:100C8300E090022EE0F87900741028F5827402399E
:100C9300F583D0E0F090022EE02401F0D083D082DF
:100CA300D0E0F9D0E0F8D0D0D0E03274F0120B717C
:100CB30074FD120B1A7402120B65E9F08A088B0992
:100CC3008C0A8D0B7415120B65E0FEA3E0FF8510F3
:100CD30082851183E4F0A3F08E828F83A3AA82AB73
:100CE30083900285780C120A0C7808790C12031F82
:100CF30070188E828F83746912118D746EF0A374D1
:100D030066F0A30A0AAB8302112878087908120354
:100D13001F60118E828F83746E12118D7461F0A324
:100D2300746E80DD900289780C120A0C7808790CB5
:100D330012034B5003020DD8900255780C120A0C83
:100D43007808790C12031F6003020E2C7417120B20
:100D530065E07003020E6E851082851183C082C028
:100D6300837413120B65121BCBD083D082121166CE
:100D7300502C851082851183C3E094FCA3E094FF7B
:100D8300A2D265D03340177402120B65E4121C9F84
:100D9300F97413120B65C3E098F0A3E099F0741390
:100DA300120B651211837418120B65E07003020EA7
:100DB3006B7417120B65E4020E6D90028D780C12A2
:100DC3000A0C7808790C1207A2851082851183E03A
:100DD300240A121CDC900291780C120A0C78087910
:100DE3000C12034B40D4900295780C120A0C78082D
:100DF300790C12034B4003020D4F900295780C12AD
:100E03000A0C7808790C1207A2121CD380D890021E
:100E13008D780C120A0C7808790C1203E68510827F
:100E2300851183E024F6121186900299780C120A38
:100E33000C7808790C12039A40D4900289780C122A
:100E43000A0C7808790C12039A4003020D4F9002A2
:100E530095780C120A0C7808790C1203E685108237
:100E630085118312118380D27401F07402120B6511
:100E7300E060077A007B00020F7A121172507D8EB8
:100E8300828F837430F0EAFEEBFF7413120B65E07C
:100E9300FCA3E0FDEC4D70087418120B65E0600BC9
:100EA3008E828F83742EF0A30EAF837A007B008033
:100EB300118E828F8374301211AE7413120B65126C
:100EC3001183EA24FF1AEB34FFFB8510828511831B
:100ED30012115A500B7413120B65121BCF4970D1A8
:100EE30085108285118374FFC39CF874FF9DF912EA
:100EF300116650030210487A01020E78851082852C
:100F03001183121BCBC3E498FAE499FB806985082B
:100F13000C85090D850A0E850B0F780C120234AC73
:100F23000CE50D3395E0F50EF50F780C1201BC7846
:100F330008790C120566900295780C120A0C780851
:100F4300790C1203E6EC1211A8EAF8EBF9E8240194
:100F53000AE93400FBE849701E7413120B65121B77
:100F6300CF4970087418120B65E0600B8E828F8373
:100F7300742EF0A30EAF837413120B6512115A5023
:100F83008D90029D780C120A0C7808790C12034B91
:100F930040030210487C01EE24FFF8EF34FFF9749C
:100FA30015120B65E0F508A3E0F50988828983E053
:100FB300642E6010E02CF0643A70077430F07C010A
:100FC30080027C00E8FAE9FBEA24FF18EB34FFF91E
:100FD300C3E5089AE5099B40D2ECA2E0506774028E
:100FE300120B65E06036EEF8EF800A121145E82433
:100FF300FF18E934FFF9C3E50898E5099950181279
:101003001132E0642E70E4E824FEF582E934FFF542
:101013008312113FF980D7121CD3801E8E828F83D7
:10102300A3AE82AF83EEF8EF800612113212113FA6
:10103300F9C3E50898E5099940F07415120B651298
:101043001BEA7431F07417120B65E07005801A1EE9
:10105300AF83EE24FFF582EF34FFF583E064306065
:10106300EEE0642E70031EAF837402120B65E07012
:10107300030211241211AAA3A9831211728E828F63
:10108300835014742DF00EE9FF85108285118312AD
:101093001C1312119B8006742BF00EE9FF7C007D5C
:1010A30000EE240AFEEF3400FFEC24010CED3400C3
:1010B300FD12114C120AA9EA1211A812114C120ABC
:1010C300A91211B54970E2C3EC9402ED121B7C40E6
:1010D300D8ECFAEDFBC3E49CF8E49DF9EE28F58225
:1010E300EF39F583E0C0E0C3E49AF8E49BF9EE2816
:1010F300F8EF39F9E82CF8E93DF9E824F5F582E948
:1011030034FFF583D0E0F0EC24FF1CED34FFFDC386
:10111300EC9401ED121B7C50BCEE24F6FEEF34FF81
:10112300FFEEFAEFFB7403120B307F08020BDDE8CE
:1011330024FFFAE934FFFB8A828B832212114518BC
:10114300EB22E088828983F0228510828511831245
:101153001C207A0A7B0022C3E09AA3E09BA2D265FB
:10116300D03322C3E098A3E099A2D265D03322857D
:101173001082851183C3A3E09400A2D265D03322E9
:10118300E024FFF0A3E034FFF022F0EAFEEBFF8E51
:10119300828F8322A3E03400F9851082851183E8CE
:1011A300F0A3E9F02224308E828F83F0A3AE82AFC6
:1011B30083228510828511831211BF22E8F0A3E9EF
:1011C300F0851082851183E02274F0120B7174B0E4
:1011D300120B1A851082851183121C857418120B49
:1011E30065ECF0A3EDF0740F120B65E4F0A380221D
:1011F3007460120B65121BBB7404120B65E0F97467
:1012030018120B65121BEA120B6F740F120B651287
:101213001B84F0121BFEFA121CBE120B65EAF0745B
:10122300256A6010E070C9740F120B65121BBB7442
:101233005002112A121BFE64257019851082851134
:1012430083E02401081211977460120B65121BBB13
:10125300792580AB740E120B65E4F0740D120B65E7
:10126300E4F0740C120B65E4F07405120B65E4F002
:10127300741E120B65A882A9837402120B65801574
:101283007405120B65E070077405120B65EAF085AF
:1012930010828511831211BB121BB2121C45FA2452
:1012A300E060DD24FD601724F860DD24FE60062481
:1012B300FD600F8011740C120B65E00480D0740D77
:1012C30080F5740E80F1121C45642A705B746212FF
:1012D3000B65121C50FB8A828B83E0FCA3E0FD7438
:1012E3000A120B65ECF0A3EDF0EA24020A0AEB34D0
:1012F30000FB7462120B65121C7D740A120B6512DB
:101303001178501F740A120B65121BBBC3E49AFABF
:10131300E49BFB740A120B65121C85740C120B659B
:10132300E004F012119C804A740A120B65E4F0A3E6
:10133300802D740A120B65121BCF75F00AA4F8AA4C
:10134300F075F00AE9A42AF9E50828F8E439F9E880
:1013530024D0F8E934FFF9740A120B65121CE31266
:101363001C9FF5838882E0F50874D02508C3940A8E
:1013730040C0740C120B65E06007740E120B65E439
:10138300F0121BFE642E6003021417851082851170
:1013930083E0240108A3E03400F91211B5121BEF16
:1013A300E0642A702C7462120B65121C04F8A3E02B
:1013B300F988828983E0FEA3E0FFE824020808E9B4
:1013C3003400F97462120B65121C38121CE3F080AE
:1013D300477E007F00851082851183121C0D74D017
:1013E3002508C3940A5031EE75F00AA4FEA8F075DF
:1013F300F00AEFA428FFE5082EF8E43FF9E824D02B
:10140300FEE934FFFF851082851183E02401F81281
:10141300119780C17EFF7FFF7A008510828511833B
:10142300121BAD851082851183E0FBA3E0F5838B4E
:1014330082E024B4600824E4600524FC70040A12EA
:10144300119C121BFEFB121CBE120B65EBF070030A
:10145300021A2224BB70030218E824FE7003021848
:10146300CA24EF700302161424F57003021519142D
:1014730070030216B91470030218E81470030218FB
:10148300E61470030218CA24FE70030216B924FB83
:10149300602414700302160414700302161424FD4E
:1014A300700302155224FE700302161424FD700308
:1014B300021614021A2E7462120B65121C77120B99
:1014C300651211A2EAA2E0740F5033120B65E0FC1F
:1014D300A3E0FD3395E0FE7406120B65121C58EC75
:1014E300F0A3EDF0A3EEF0A3F07462120B65121CEF
:1014F3005F120B65121C38E8F0A3E9021215120BF8
:1015030065121BCB7406120B65121C50F5838A827D
:10151300E8F0A3E980D27462120B65121C58E0C094
:10152300E0741E120B65D0E0F07462120B65121C9E
:101533005F120B65121C381211A2741F120B65A8DF
:1015430082A9837412120B65E8F0A3E9021A4574A9
:1015530062120B65121C77120B651211A27406122C
:101563000B65121C77120B65E02402FAA3E034002A
:10157300FB7462120B65121C7D7402120B6512114F
:10158300A2E849700C7402120B657472F0A3740222
:10159300F0121B7A50047E107F277408120B65E447
:1015A300F0A380087408120B65121B84F0740212F6
:1015B3000B65121BCB88828983A3AA82AB83740237
:1015C300120B65121C8588828983E0600A740812F5
:1015D3000B65121BD440CD7402120B65121B9B7456
:1015E30012120B651211A27408120B65121C13F967
:1015F3007412120B65E028F8A3E039F9740202159E
:1016030048740D120B65E06008EE4F70047E017F95
:10161300007462120B65121C77120B65121CCB123D
:101623000B65E0647070387406120B65121C6D1242
:101633000B65121CA6120B65E02402121C2F120B61
:1016430065121C381211A29002A1120A2A741A12EE
:101653000B65120A367405120B65E4F0021749EAAA
:10166300A2E07406501B120B65121BEA120A2A74BD
:1016730014120B65120A367406120B65E0240480FB
:1016830012120B65121C6D120B65121CA6120B6550
:10169300E02402121C2F120B65121C38121CCB12F1
:1016A3000B65E0646F70059002A5809EE064757021
:1016B300969002A980947462120B65121C77120B28
:1016C300651211A2EAA2E074065016120B65121BF2
:1016D300EA7808120A0C7406120B65E02404F880F9
:1016E3001B120B65121C0DA3E0F5093395E0F50AF7
:1016F300F50B7406120B65E024020808121C301265
:101703000B65121CB3120B657808120A1B90025565
:10171300780812019640217405120B65742DF0743C
:1017230014120B657808120A0C78081209FB74145A
:10173300120B657808120A1B9002A9120A2A741A5E
:10174300120B65120A36744F120B65A882A98374B3
:1017530002120B651211A27412120B65121CB6123F
:101763000B657808120A0CE5084509450A450B6024
:10177300097411120B65740180067411120B65E470
:10178300F0EE4F7008E0A2E0400302183D7402122D
:101793000B65121BE4120B65121CB6120B65780C59
:1017A300120A0C741A120B657808120A0C780C7959
:1017B3000812098874612508F58274023509F583D6
:1017C300E0C0E07402120B65121BEAD0E0F074145F
:1017D300120B65780C120A0C741A120B6578081236
:1017E3000A0C780C79081209887414120B65780CAA
:1017F300120A1B7414120B657808120A0CE50845CB
:1018030009450A450B7086121B7A502E740E120B73
:1018130065E060267405120B65E06004D2F0800277
:10182300C2F0740A120B65121B8D800E7402120B28
:1018330065121C97120B65121BF77402120B6512CB
:101843001B9B744F120B65C082C0837402120B651D
:10185300121BBBD083D082E582C39AFAE5839BFB3C
:10186300C3EA9EEB121BDD40C3740D120B65E070DF
:1018730003021A467411120B65E0A2E04003021A38
:10188300467404120B65E064786005E06458701ECA
:10189300121145E824FF18E934FFF97402120B65AD
:1018A300121C97120B65121BEA7430021A45E0648E
:1018B3006F6003021A467402120B65121C4B6430EC
:1018C3007003021A4680D47408120B657401F0A3E6
:1018D300E4F07404120B65E024FEF0EE4F700F7E0B
:1018E300018012E4F07408120B65E4F0A3F0121BFC
:1018F3007A50047E067F007462120B65121C771205
:101903000B651211A27406120B65121BEA780C12F6
:101913000A0C7406120B65E02404121C2F120B65CB
:10192300121CB3120B65780C120A1B90025578082F
:10193300120A0C780C790812039A50227405120BC0
:1019430065742DF07414120B657808120A0CE50BFC
:10195300B2E7F50B7414120B657808120A1B740AAC
:10196300120B65121BCB741E120B65E58228F8E57A
:101973008339F97402120B651211A2740D120B65EF
:10198300E0F5087808120C2B7409120B65E0F508D2
:101993007808120C2B7404120B65120C3A8E088F04
:1019A300097808120C27740A120B65E0F9741A12ED
:1019B3000B65120A2A12018A7406120B3074121272
:1019C3000B65121C85740E120B65E06076740512AC
:1019D3000B65E06004D2F08002C2F0740A120B655A
:1019E300121B8D7412120B65C082C0837402120B1A
:1019F30065121BCBD083D082E0C398F8A3E099F99A
:101A0300C3E89EE9121BDD503A7402120B65121BE8
:101A1300E4120B65121C97120B65121BF780C48529
:101A23001082851183121BA412119B7402120B6581
:101A33007481F0A37402F07412120B657484F0A322
:101A43007402F07412120B65C082C0837402120B0D
:101A530065121BCBD083D082E0C398FEA3E099FF2D
:101A6300740A120B65121BD4500A7408120B65E436
:101A7300F0A380307405120B65E06004D2F080029D
:101A8300C2F0740A120B65E0C39EF8A3E09FF9A2AB
:101A9300F0E433FAE89AF8E99400F97408120B6554
:101AA300E8F0A3E9F0740C120B65E0702B80197455
:101AB30060120B65121BC1120B65121BEA120B6F2E
:101AC300740F120B65121CD97408120B65121C8B50
:101AD300120B6512117850D77405120B65E0605034
:101AE3007460120B65121BBB7405120B65E0F9746D
:101AF30018120B65121BEA120B6F802C7460120B09
:101B030065121BBB7402120B65121C04F9741812C4
:101B13000B65121BEA120B6F7402120B65121BADDD
:101B23007402120B651211A2740F120B65121CD9E9
:101B3300EE24FF1EEF34FFFFC3121B7C50BE740C58
:101B4300120B65E070030212167408120B65121C67
:101B53008B120B6512117850030212167460120B6C
:101B630065121BC1120B65121BEA120B6F740F1265
:101B73000B65121CD980D2C3EF9400A2D265D03377
:101B830022E02401F0A3E0340022A2F0E433F8E0E1
:101B930098FEA3E09400FF22121B9F22121BA4F9BC
:101BA30022E024FFF8A3E034FF22E0121BB2222438
:101BB30001F8A3E03400F922E0FAA3E0FB22E0FA03
:101BC300A3E0FB7920741822121C2022121C20E8A7
:101BD30022C3E09EA3E0121BDD229FA2D265D03375
:101BE30022121B9F740222121BEE22E0F8A3E0F5DF
:101BF30083888222121BEE7430F0228510828511B5
:101C030083121C0822121C26E022121C08F508224B
:101C1300121C20C3E498F8E49922121C26E0F8A3CE
:101C2300E0F922E0F8A3E0F583888222F8A3E03408
:101C330000F9746222121C3C22E0FAA3E0F5838AC5
:101C43008222851082851183121C3CE022121C3CE7
:101C5300E0FAA3E022121C08121BEF22121C082434
:101C630002F8A3E03400F9746222121C1DE8FAE9B9
:101C7300FB741422121C1D740622E0FCA3E0F583FE
:101C83008C82EAF0A3EBF022E024FFF0A3E034FF20
:101C9300F0740822E8F0A3E9F07402221211C3F8E9
:101CA300A3E022EAF0A3EBF0A3E4F0A3F07406228E
:101CB300121C3CE8F0A3E9F074142285108285110C
:101CC30083E0240108121CF1E8F0A3E9F074042274
:101CD300851082851183E02401F0A3E03400F02213
:101CE3001211BF2401F8121CF1E8F0A3E922A3E0CA
:101CF3003400F985108285118322EBC313FBEA13A9
:101D0300FAEAF8EBF9E824FFFAE934FFFBE8496063
:101D130012000000000000000000000000000000AE
:101D23000080DE02008B7C007D008019E82401F82E
:101D3300E93400F9C3E8942EE9940440EFEC24015C
:101D4300FCED3400FDC3EC9AED9B5006780079005E
:101D530080E202008BC082C08343FE0153F4FE1273
:101D6300013CD083D08202008B74F6120B7174C4D1
:101D7300120B1A7508007E007F007509008052C29D
:101D8300907AE17B001201487A037906120142E559
:101D930009A8097900E875F002A4C8ACF075F00051
:101DA300A42CFC75F002E9A42CF98510828511831B
:101DB300E58228F582E58339F583EAF0A3EBF07A2F
:101DC300237B00120148D2907A5C7B2B12014805D9
:101DD30009E509C3941E40A7851082851183E0F8A5
:101DE300A3E0F9851082851183E0FAA3E0FB75086F
:101DF30000021F01E508AC087D00EC75F002A4CCDD
:101E030085F00975F000A42509F50975F002EDA424
:101E13002509FD851082851183E5822CF582E583F2
:101E23003DF583E0FCA3E0FDC3E89CE99D5030E56C
:101E330008A8087900E875F002A4C8ACF075F000B2
:101E4300A42CFC75F002E9A42CF98510828511837A
:101E5300E58228F582E58339F583E0F8A3E0F9E527
:101E630008AC087D00EC75F002A4CC85F00975F090
:101E730000A42509F50975F002EDA42509FD8510D7
:101E830082851183E5822CF582E5833DF583C3E0EA
:101E93009AA3E09B5030E508AA087B00EA75F0029C
:101EA300A4CAACF075F000A42CFC75F002EBA42CD2
:101EB300FB851082851183E5822AF582E5833BF554
:101EC30083E0FAA3E0FBE508AC087D00EC75F002C3
:101ED300A4CC85F00975F000A42509F50975F00275
:101EE300EDA42509FD851082851183E5822CF582F9
:101EF300E5833DF583E02EFEA3E03FFF0508E508FB
:101F0300C3941E5003021DF7EA687002EB69700662
:101F1300E8FEE9FF801DEEC39AFAEF9BFBEAC39844
:101F2300F8EB99F97A1C7B00120AB188088909AE8B
:101F330008AF09EEFAEFFB743C120B307F02020B81
:101F4300DD7803800819E9C3940150F918E8C394B4
:101F5300014004790280EF02008B74F7120B71EADF
:101F6300FEEBFFEEF8EFF9E824FFFEE934FFFFE8AC
:101F7300496011750800E508C3946450E612012412
:101F8300050880F27F01020BDD74F7120B717E00EE
:101F9300801690020FE0C33390020FF0900201E02D
:101FA300F890020FE048F00EEEC3940850539002ED
:101FB300007402F0A287400F900200E0F874012839
:101FC300900200F0E870ED120124120124120124A2
:101FD3009002017400F0A28750069002017401F090
:101FE3009002007402F0A287500F900200E0F87490
:101FF3000128900200F0E870ED900200E0640170A7
:10200300917F01020BDDC082C083C2877A137B00FC
:1020130012012AD28753FD7F1201241201241201D7
:1020230024120124A2875003022135900200740276
:10203300F0A287400F900200E0F87401289002009C
:10204300F0E870ED9002007402F0A287500F900246
:1020530000E0F8740128900200F0E870ED120130FE
:1020630090020FE090020CF012013090020FE0900A
:10207300020DF012013090020FE090020AF01201FB
:102083003090020FE090020BF012013090020FE04B
:1020930090020EF0D28790020DC082C08390020C92
:1020A300C082C08390020BC082C08390020AE0D03A
:1020B30083D082F8E028D083D082F8E028D083D080
:1020C30082F8E028900201F0900201E0F890020EFD
:1020D300E068702890020CE0900207F090020DE097
:1020E300900208F090020AE0900205F090020BE0E3
:1020F300900206F090020EE0900209F075F00A904B
:102103000205E084900204F0900205E075F00A8471
:10211300E5F090022FF075F00A900207E084900238
:1021230002F0900207E075F00A84E5F0900203F0F4
:1021330080189002047400F090022F7400F0900253
:10214300027400F09002037400F043FD80D083D04A
:102153008202008B74CE120B1A7E007F0090025510
:10216300780C120A0C9002557808120A0C9002306F
:10217300C082C0837410120B65AC82AD83D083D050
:1021830082740D120A4F90023DC082C083740612FE
:102193000B65AC82AD83D083D082740A120A4F12CE
:1021A30001607A6B7B5479001201661201547AD074
:1021B3007B0712014E7508037509007808120C2776
:1021C3007C007D007405120B65AA82AB8312017239
:1021D3007402120B307508037509007808120C2776
:1021E3007C007D007402120B65AA82AB831201721C
:1021F3007402120B3012013612015A8A088B09AE8F
:1022030008AF098E0C8F0DE4F50EF50F780C120153
:10221300D79002597808120A0C780C79081203E651
:1022230090025D7808120A0C780C79081203E6858F
:102233000C08850D09850E0A850F0B900204E02416
:1022430030C0E07403120B65D0E0F090022FE0245D
:1022530030C0E07404120B65D0E0F0900202E02479
:1022630030851082851183F0900203E02430C0E0B2
:102273007401120B65D0E0F0790C7410120B65AA8F
:1022830082AB8312016C79027403120B65AA82ABD1
:102293008312016C79017A477B0212016C7909740C
:1022A30006120B65AA82AB8312016C790285108238
:1022B300851183AA82AB8312016C79017A477B0271
:1022C30012016C7808120C237C497D027421120BD5
:1022D30065AA82AB8312017E7404120B30741D1243
:1022E3000B65AA82AB83120184EAF9741D120B6594
:1022F300AA82AB8312016C7AE87B0312014E02219E
:10230300B8C082C08374FF120B1A75B43F75B58FC2
:10231300E5BA851082851183F0E5BB8510828511AE
:1023230083F075B68CE5B4A2E750FAE5BA8510825E
:10233300851183F0E5BB851082851183F075B68C1A
:10234300E5B4A2E750FAE5BA851082851183F0E57A
:10235300BB851082851183F07401120B30D083D0BA
:102363008202008B74F6120B7174FF120B1AEAFCD3
:102373007A007B007D01E5B654C0FEE9C3940850A2
:102383000E78008005EDC333FD08E8C39940F6EDF0
:1023930042F2EC14600814600914600A800C78009F
:1023A300800A78108006782080027830E5BA85109C
:1023B30082851183F0E5BB851082851183F0E5B634
:1023C300F508750800E9484E42088508B6E5B4A249
:1023D300E750FA74FF6D52F2A8BA8882758300AA97
:1023E30082AB83E5BBFE7F00E4CEFFEE4AFAEF4B00
:1023F300FBC3EA9400EB9400A2D265D03350047A75
:10240300007B00EC14600814601614602480338A87
:10241300088B0974087808120B0AAA08AB098031E3
:102423008A088B0974067808120B0AAA08AB09807C
:10243300208A088B0974047808120B0AAA08AB09CE
:10244300800F8A088B0974027808120B0AAA08AB5A
:10245300097401120B307F02020BDD53C6BFE59EE8
:10246300A2E640FA53C6B802008B74F6120B71E968
:10247300FEEAFCEBFD43F30C43868053C5F0C3EC4B
:1024830094B8ED940B5033ECF8EDF97A0A7B001213
:102493000AB1E8F5C2ECF8EDF97A0A7B00120AB149
:1024A3008A088B09AC08AD098E08750900EC25086C
:1024B300FCED3509FDEC42C58031ECF8EDF97A64A9
:1024C3007B00120AB1E8F5C2ECF8EDF97A647B00FF
:1024D300120AB18A088B09AC08AD098E0875090088
:1024E300EC2508FCED3509FDEC42C5C2E943864005
:1024F300D2AAD2AF7F02020BDDC082C0835386BF54
:10250300780080178A828B83E0F5C18A828B83A34C
:10251300AA82AB83A2E950FCC2E908E8C39940E46C
:10252300438640D083D08202008BC082C0838A82DC
:102533008B831225C4E9F08A828B83E02401FCA3F8
:10254300E03400FD8A828B83ECF0A3EDF0D083D0DE
:102553008202008B74F6120B7174FC120B1A740254
:10256300120B65EAF0A3EBF0ECFAEDFB740E120B21
:1025730065A882A983851082851183E8F0A3E9F019
:102583008510828511838582088583097808120C5A
:10259300277404120B658582088583097808120C59
:1025A300277C787D011201907404120B307402129F
:1025B3000B651225C4E4F07404120B307F02020B86
:1025C300DDE0F8A3E0F58388822274F7120B7174BF
:1025D30009120B65E0F8A3E0F98A828B838003EC90
:1025E300F0A3E8FEE9FFEE24FF18EF34FFF9EE4F06
:1025F30070ED7F01020BDDC082C0838A828B8380F2
:1026030001A3E070FCE582C39AFAE5839BFBD083C8
:05261300D08202008BE3
:040000050000007384
:00000001FF
